{
  "contractName": "Custody",
  "abi": [
    {
      "anonymous": false,
      "inputs": [
        {
          "indexed": false,
          "internalType": "uint256",
          "name": "amount",
          "type": "uint256"
        }
      ],
      "name": "Deposit",
      "type": "event"
    },
    {
      "anonymous": false,
      "inputs": [
        {
          "indexed": false,
          "internalType": "uint256",
          "name": "amount",
          "type": "uint256"
        }
      ],
      "name": "Withdraw",
      "type": "event"
    },
    {
      "inputs": [],
      "name": "deposit",
      "outputs": [],
      "stateMutability": "payable",
      "type": "function",
      "payable": true
    },
    {
      "inputs": [
        {
          "internalType": "uint256",
          "name": "_amount",
          "type": "uint256"
        }
      ],
      "name": "withdraw",
      "outputs": [],
      "stateMutability": "payable",
      "type": "function",
      "payable": true
    },
    {
      "inputs": [],
      "name": "balanceOf",
      "outputs": [
        {
          "internalType": "uint256",
          "name": "",
          "type": "uint256"
        }
      ],
      "stateMutability": "view",
      "type": "function",
      "constant": true
    }
  ],
  "bytecode": "0x608060405234801561001057600080fd5b5060016000819055506106b9806100286000396000f3fe6080604052600436106100345760003560e01c80632e1a7d4d14610039578063722713f714610055578063d0e30db014610080575b600080fd5b610053600480360381019061004e9190610401565b61008a565b005b34801561006157600080fd5b5061006a6102ab565b6040516100779190610502565b60405180910390f35b6100886102f2565b005b600260005414156100d0576040517f08c379a00000000000000000000000000000000000000000000000000000000081526004016100c7906104c2565b60405180910390fd5b600260008190555080600160003373ffffffffffffffffffffffffffffffffffffffff1673ffffffffffffffffffffffffffffffffffffffff16815260200190815260200160002054101561015a576040517f08c379a0000000000000000000000000000000000000000000000000000000008152600401610151906104e2565b60405180910390fd5b60003390508073ffffffffffffffffffffffffffffffffffffffff166108fc839081150290604051600060405180830381858888f193505050506101d3576040517f08c379a00000000000000000000000000000000000000000000000000000000081526004016101ca906104a2565b60405180910390fd5b61022582600160003373ffffffffffffffffffffffffffffffffffffffff1673ffffffffffffffffffffffffffffffffffffffff168152602001908152602001600020546103c090919063ffffffff16565b600160003373ffffffffffffffffffffffffffffffffffffffff1673ffffffffffffffffffffffffffffffffffffffff168152602001908152602001600020819055507f5b6b431d4476a211bb7d41c20d1aab9ae2321deee0d20be3d9fc9b1093fa6e3d826040516102979190610502565b60405180910390a150600160008190555050565b6000600160003373ffffffffffffffffffffffffffffffffffffffff1673ffffffffffffffffffffffffffffffffffffffff16815260200190815260200160002054905090565b61034434600160003373ffffffffffffffffffffffffffffffffffffffff1673ffffffffffffffffffffffffffffffffffffffff168152602001908152602001600020546103d690919063ffffffff16565b600160003373ffffffffffffffffffffffffffffffffffffffff1673ffffffffffffffffffffffffffffffffffffffff168152602001908152602001600020819055507f4d6ce1e535dbade1c23defba91e23b8f791ce5edc0cc320257a2b364e4e38426346040516103b69190610502565b60405180910390a1565b600081836103ce9190610584565b905092915050565b600081836103e4919061052e565b905092915050565b6000813590506103fb8161066c565b92915050565b60006020828403121561041357600080fd5b6000610421848285016103ec565b91505092915050565b600061043760108361051d565b9150610442826105f1565b602082019050919050565b600061045a601f8361051d565b91506104658261061a565b602082019050919050565b600061047d60148361051d565b915061048882610643565b602082019050919050565b61049c816105b8565b82525050565b600060208201905081810360008301526104bb8161042a565b9050919050565b600060208201905081810360008301526104db8161044d565b9050919050565b600060208201905081810360008301526104fb81610470565b9050919050565b60006020820190506105176000830184610493565b92915050565b600082825260208201905092915050565b6000610539826105b8565b9150610544836105b8565b9250827fffffffffffffffffffffffffffffffffffffffffffffffffffffffffffffffff03821115610579576105786105c2565b5b828201905092915050565b600061058f826105b8565b915061059a836105b8565b9250828210156105ad576105ac6105c2565b5b828203905092915050565b6000819050919050565b7f4e487b7100000000000000000000000000000000000000000000000000000000600052601160045260246000fd5b7f5769746864726177206661696c65642e00000000000000000000000000000000600082015250565b7f5265656e7472616e637947756172643a207265656e7472616e742063616c6c00600082015250565b7f496e73756666696369656e7420616d6f756e7421000000000000000000000000600082015250565b610675816105b8565b811461068057600080fd5b5056fea2646970667358221220b6c85737524c636c17718b344d4fc5571d9e4d42ce2b226ba5e13015e2fb356064736f6c63430008040033",
  "immutableReferences": {},
  "source": "// SPDX-License-Identifier: MIT\r\npragma solidity >=0.8.0;\r\nimport \"@openzeppelin/contracts/utils/math/SafeMath.sol\";\r\nimport \"@openzeppelin/contracts/security/ReentrancyGuard.sol\";\r\n\r\ncontract Custody is ReentrancyGuard {\r\n    using SafeMath for uint256;\r\n\r\n    mapping(address => uint256) balance;\r\n\r\n    function deposit() public payable {\r\n        balance[msg.sender] = balance[msg.sender].add(msg.value);\r\n        emit Deposit(msg.value);\r\n    }\r\n\r\n    function withdraw(uint256 _amount) public payable nonReentrant {\r\n        require(balance[msg.sender] >= _amount, \"Insufficient amount!\");\r\n        address payable sender = payable(msg.sender);\r\n        require(sender.send(_amount), \"Withdraw failed.\");\r\n        balance[msg.sender] = balance[msg.sender].sub(_amount);\r\n        emit Withdraw(_amount);\r\n    }\r\n\r\n    function balanceOf() public view returns (uint256){\r\n        return balance[msg.sender];\r\n    }\r\n\r\n    event Deposit(uint256 amount);\r\n    event Withdraw(uint256 amount);\r\n}",
  "sourcePath": "E:/0WORKS/Blockchain/HTCH project/hyperOptionTradeTruffle/contracts/Custody.sol",
  "compiler": {
    "name": "solc",
    "version": "0.8.4+commit.c7e474f2.Emscripten.clang"
  },
  "schemaVersion": "3.4.1",
  "updatedAt": "2021-06-25T14:52:52.787Z",
  "networkType": "ethereum",
  "devdoc": {
    "kind": "dev",
    "methods": {},
    "version": 1
  },
  "userdoc": {
    "kind": "user",
    "methods": {},
    "version": 1
  }
}